{
  "_format": "hh-sol-artifact-1",
  "contractName": "Staking",
  "sourceName": "contracts/Staking.sol",
  "abi": [
    {
      "inputs": [],
      "stateMutability": "nonpayable",
      "type": "constructor"
    },
    {
      "anonymous": false,
      "inputs": [
        {
          "indexed": true,
          "internalType": "address",
          "name": "stakeholder",
          "type": "address"
        },
        {
          "indexed": false,
          "internalType": "uint256",
          "name": "reward",
          "type": "uint256"
        }
      ],
      "name": "RewardClaim",
      "type": "event"
    },
    {
      "anonymous": false,
      "inputs": [
        {
          "indexed": true,
          "internalType": "address",
          "name": "stakeholder",
          "type": "address"
        },
        {
          "indexed": false,
          "internalType": "uint256",
          "name": "value",
          "type": "uint256"
        }
      ],
      "name": "Staked",
      "type": "event"
    },
    {
      "anonymous": false,
      "inputs": [
        {
          "indexed": true,
          "internalType": "address",
          "name": "stakeholder",
          "type": "address"
        },
        {
          "indexed": false,
          "internalType": "uint256",
          "name": "stake",
          "type": "uint256"
        }
      ],
      "name": "Unstaked",
      "type": "event"
    },
    {
      "anonymous": false,
      "inputs": [
        {
          "indexed": true,
          "internalType": "address",
          "name": "stakeholder",
          "type": "address"
        },
        {
          "indexed": false,
          "internalType": "uint256",
          "name": "stake",
          "type": "uint256"
        }
      ],
      "name": "Withdrawal",
      "type": "event"
    },
    {
      "inputs": [],
      "name": "THRESHOLD",
      "outputs": [
        {
          "internalType": "uint256",
          "name": "",
          "type": "uint256"
        }
      ],
      "stateMutability": "view",
      "type": "function"
    },
    {
      "inputs": [
        {
          "internalType": "address",
          "name": "",
          "type": "address"
        }
      ],
      "name": "balance",
      "outputs": [
        {
          "internalType": "uint256",
          "name": "",
          "type": "uint256"
        }
      ],
      "stateMutability": "view",
      "type": "function"
    },
    {
      "inputs": [],
      "name": "endBlock",
      "outputs": [
        {
          "internalType": "uint256",
          "name": "",
          "type": "uint256"
        }
      ],
      "stateMutability": "view",
      "type": "function"
    },
    {
      "inputs": [],
      "name": "getBalance",
      "outputs": [
        {
          "internalType": "uint256",
          "name": "",
          "type": "uint256"
        }
      ],
      "stateMutability": "view",
      "type": "function"
    },
    {
      "inputs": [],
      "name": "getStakeholder",
      "outputs": [
        {
          "internalType": "address payable[]",
          "name": "",
          "type": "address[]"
        }
      ],
      "stateMutability": "view",
      "type": "function"
    },
    {
      "inputs": [
        {
          "internalType": "uint256",
          "name": "index",
          "type": "uint256"
        }
      ],
      "name": "getStakeholders",
      "outputs": [
        {
          "internalType": "address",
          "name": "",
          "type": "address"
        }
      ],
      "stateMutability": "view",
      "type": "function"
    },
    {
      "inputs": [
        {
          "internalType": "address",
          "name": "stakeholdersAddress",
          "type": "address"
        }
      ],
      "name": "getstakeholdersIndex",
      "outputs": [
        {
          "internalType": "uint256",
          "name": "",
          "type": "uint256"
        }
      ],
      "stateMutability": "view",
      "type": "function"
    },
    {
      "inputs": [
        {
          "internalType": "address",
          "name": "stakeholdersAddress",
          "type": "address"
        }
      ],
      "name": "isStakeholder",
      "outputs": [
        {
          "internalType": "bool",
          "name": "",
          "type": "bool"
        }
      ],
      "stateMutability": "view",
      "type": "function"
    },
    {
      "inputs": [],
      "name": "manager",
      "outputs": [
        {
          "internalType": "address",
          "name": "",
          "type": "address"
        }
      ],
      "stateMutability": "view",
      "type": "function"
    },
    {
      "inputs": [],
      "name": "reward",
      "outputs": [],
      "stateMutability": "payable",
      "type": "function"
    },
    {
      "inputs": [],
      "name": "sendBlock",
      "outputs": [
        {
          "internalType": "uint256",
          "name": "",
          "type": "uint256"
        }
      ],
      "stateMutability": "view",
      "type": "function"
    },
    {
      "inputs": [],
      "name": "stake",
      "outputs": [],
      "stateMutability": "payable",
      "type": "function"
    },
    {
      "inputs": [],
      "name": "stakedAmount",
      "outputs": [
        {
          "internalType": "uint256",
          "name": "",
          "type": "uint256"
        }
      ],
      "stateMutability": "view",
      "type": "function"
    },
    {
      "inputs": [
        {
          "internalType": "address",
          "name": "",
          "type": "address"
        }
      ],
      "name": "stakeholder",
      "outputs": [
        {
          "internalType": "bool",
          "name": "",
          "type": "bool"
        }
      ],
      "stateMutability": "view",
      "type": "function"
    },
    {
      "inputs": [
        {
          "internalType": "address",
          "name": "",
          "type": "address"
        }
      ],
      "name": "stakeholdersIndex",
      "outputs": [
        {
          "internalType": "uint256",
          "name": "",
          "type": "uint256"
        }
      ],
      "stateMutability": "view",
      "type": "function"
    },
    {
      "inputs": [],
      "name": "stakerCount",
      "outputs": [
        {
          "internalType": "uint256",
          "name": "",
          "type": "uint256"
        }
      ],
      "stateMutability": "view",
      "type": "function"
    },
    {
      "inputs": [],
      "name": "staking",
      "outputs": [
        {
          "internalType": "enum Staking.State",
          "name": "",
          "type": "uint8"
        }
      ],
      "stateMutability": "view",
      "type": "function"
    },
    {
      "inputs": [],
      "name": "startBlock",
      "outputs": [
        {
          "internalType": "uint256",
          "name": "",
          "type": "uint256"
        }
      ],
      "stateMutability": "view",
      "type": "function"
    },
    {
      "inputs": [],
      "name": "unstake",
      "outputs": [],
      "stateMutability": "payable",
      "type": "function"
    },
    {
      "inputs": [],
      "name": "withdrawStake",
      "outputs": [],
      "stateMutability": "payable",
      "type": "function"
    }
  ],
  "bytecode": "0x60806040523480156200001157600080fd5b5033600160006101000a81548173ffffffffffffffffffffffffffffffffffffffff021916908373ffffffffffffffffffffffffffffffffffffffff1602179055506001600a60006101000a81548160ff021916908360038111156200007c576200007b620000ba565b5b021790555042600781905550603c4262000097919062000122565b600881905550603c600854620000ae919062000122565b6009819055506200017f565b7f4e487b7100000000000000000000000000000000000000000000000000000000600052602160045260246000fd5b6000819050919050565b7f4e487b7100000000000000000000000000000000000000000000000000000000600052601160045260246000fd5b60006200012f82620000e9565b91506200013c83620000e9565b9250827fffffffffffffffffffffffffffffffffffffffffffffffffffffffffffffffff03821115620001745762000173620000f3565b5b828201905092915050565b6117ea806200018f6000396000f3fe60806040526004361061011f5760003560e01c8063481c6a75116100a0578063b703367411610064578063b70336741461038e578063bed9d861146103b9578063dff69787146103c3578063e3d670d7146103ee578063ef037b901461042b5761011f565b8063481c6a75146102a557806348cd4cb1146102d05780634cf088d9146102fb5780636b5d1bcd14610326578063785ffb37146103635761011f565b8063225e69d5116100e7578063225e69d51461021f578063228cb7331461025c5780632def662014610266578063373d6132146102705780633a4b66f11461029b5761011f565b8063083c6323146101245780630b83d9c21461014f57806312065fe01461018c578063130ed97e146101b757806320e8ed80146101e2575b600080fd5b34801561013057600080fd5b50610139610468565b6040516101469190610fa6565b60405180910390f35b34801561015b57600080fd5b5061017660048036038101906101719190611024565b61046e565b6040516101839190610fa6565b60405180910390f35b34801561019857600080fd5b506101a16104b7565b6040516101ae9190610fa6565b60405180910390f35b3480156101c357600080fd5b506101cc6104bf565b6040516101d99190610fa6565b60405180910390f35b3480156101ee57600080fd5b5061020960048036038101906102049190611024565b6104c5565b6040516102169190610fa6565b60405180910390f35b34801561022b57600080fd5b5061024660048036038101906102419190611024565b6104dd565b604051610253919061106c565b60405180910390f35b6102646104fd565b005b61026e610679565b005b34801561027c57600080fd5b506102856108d5565b6040516102929190610fa6565b60405180910390f35b6102a36108db565b005b3480156102b157600080fd5b506102ba610b5a565b6040516102c79190611096565b60405180910390f35b3480156102dc57600080fd5b506102e5610b80565b6040516102f29190610fa6565b60405180910390f35b34801561030757600080fd5b50610310610b86565b60405161031d9190611128565b60405180910390f35b34801561033257600080fd5b5061034d6004803603810190610348919061116f565b610b99565b60405161035a9190611096565b60405180910390f35b34801561036f57600080fd5b50610378610be0565b6040516103859190610fa6565b60405180910390f35b34801561039a57600080fd5b506103a3610beb565b6040516103b0919061126c565b60405180910390f35b6103c1610c79565b005b3480156103cf57600080fd5b506103d8610f19565b6040516103e59190610fa6565b60405180910390f35b3480156103fa57600080fd5b5061041560048036038101906104109190611024565b610f1f565b6040516104229190610fa6565b60405180910390f35b34801561043757600080fd5b50610452600480360381019061044d9190611024565b610f37565b60405161045f919061106c565b60405180910390f35b60085481565b6000600360008373ffffffffffffffffffffffffffffffffffffffff1673ffffffffffffffffffffffffffffffffffffffff168152602001908152602001600020549050919050565b600047905090565b60095481565b60036020528060005260406000206000915090505481565b60026020528060005260406000206000915054906101000a900460ff1681565b6000600360003373ffffffffffffffffffffffffffffffffffffffff1673ffffffffffffffffffffffffffffffffffffffff168152602001908152602001600020541161057f576040517f08c379a000000000000000000000000000000000000000000000000000000000815260040161057690611311565b60405180910390fd5b60075442101561058e57600080fd5b6008544211156105d3576040517f08c379a00000000000000000000000000000000000000000000000000000000081526004016105ca9061137d565b60405180910390fd5b600854431180156105ec5750662386f26fc10000600554115b61062b576040517f08c379a0000000000000000000000000000000000000000000000000000000008152600401610622906113e9565b60405180910390fd5b6000600360003373ffffffffffffffffffffffffffffffffffffffff1673ffffffffffffffffffffffffffffffffffffffff168152602001908152602001600020541161067757600080fd5b565b6000600360003373ffffffffffffffffffffffffffffffffffffffff1673ffffffffffffffffffffffffffffffffffffffff16815260200190815260200160002054116106fb576040517f08c379a00000000000000000000000000000000000000000000000000000000081526004016106f290611311565b60405180910390fd5b60075442101561070a57600080fd5b60085442111561074f576040517f08c379a00000000000000000000000000000000000000000000000000000000081526004016107469061137d565b60405180910390fd5b6000600360003373ffffffffffffffffffffffffffffffffffffffff1673ffffffffffffffffffffffffffffffffffffffff16815260200190815260200160002054116107d1576040517f08c379a00000000000000000000000000000000000000000000000000000000081526004016107c890611455565b60405180910390fd5b600060055414610816576040517f08c379a000000000000000000000000000000000000000000000000000000000815260040161080d906114c1565b60405180910390fd5b600854421061085a576040517f08c379a00000000000000000000000000000000000000000000000000000000081526004016108519061152d565b60405180910390fd5b6003600a60006101000a81548160ff021916908360038111156108805761087f6110b1565b5b02179055503373ffffffffffffffffffffffffffffffffffffffff167f0f5bb82176feb1b5e747e28471aa92156a04d9f3ab9f45f28e2d704232b93f75346040516108cb9190610fa6565b60405180910390a2565b60055481565b6007544210156108ea57600080fd5b60085442111561092f576040517f08c379a00000000000000000000000000000000000000000000000000000000081526004016109269061137d565b60405180910390fd5b60016003811115610943576109426110b1565b5b600a60009054906101000a900460ff166003811115610965576109646110b1565b5b1461096f57600080fd5b662386f26fc100003410156109b9576040517f08c379a00000000000000000000000000000000000000000000000000000000081526004016109b090611599565b60405180910390fd5b662386f26fc100003410610aa7576001600260003373ffffffffffffffffffffffffffffffffffffffff1673ffffffffffffffffffffffffffffffffffffffff16815260200190815260200160002060006101000a81548160ff02191690831515021790555060066000815480929190610a32906115e8565b919050555034600360003373ffffffffffffffffffffffffffffffffffffffff1673ffffffffffffffffffffffffffffffffffffffff1681526020019081526020016000206000828254610a869190611631565b925050819055503460056000828254610a9f9190611631565b925050819055505b6000339080600181540180825580915050600190039060005260206000200160009091909190916101000a81548173ffffffffffffffffffffffffffffffffffffffff021916908373ffffffffffffffffffffffffffffffffffffffff1602179055503373ffffffffffffffffffffffffffffffffffffffff167f9e71bc8eea02a63969f509818f2dafb9254532904319f9dbda79b67bd34a5f3d34604051610b509190610fa6565b60405180910390a2565b600160009054906101000a900473ffffffffffffffffffffffffffffffffffffffff1681565b60075481565b600a60009054906101000a900460ff1681565b6000808281548110610bae57610bad611687565b5b9060005260206000200160009054906101000a900473ffffffffffffffffffffffffffffffffffffffff169050919050565b662386f26fc1000081565b60606000805480602002602001604051908101604052809291908181526020018280548015610c6f57602002820191906000526020600020905b8160009054906101000a900473ffffffffffffffffffffffffffffffffffffffff1673ffffffffffffffffffffffffffffffffffffffff1681526020019060010190808311610c25575b5050505050905090565b6000600360003373ffffffffffffffffffffffffffffffffffffffff1673ffffffffffffffffffffffffffffffffffffffff1681526020019081526020016000205411610cfb576040517f08c379a0000000000000000000000000000000000000000000000000000000008152600401610cf290611311565b60405180910390fd5b600754421015610d0a57600080fd5b600954421015610d1957600080fd5b600854421115610d5e576040517f08c379a0000000000000000000000000000000000000000000000000000000008152600401610d559061137d565b60405180910390fd5b60095442118015610d775750662386f26fc10000600554115b610db6576040517f08c379a0000000000000000000000000000000000000000000000000000000008152600401610dad90611728565b60405180910390fd5b6000600360003373ffffffffffffffffffffffffffffffffffffffff1673ffffffffffffffffffffffffffffffffffffffff1681526020019081526020016000205411610e38576040517f08c379a0000000000000000000000000000000000000000000000000000000008152600401610e2f90611794565b60405180910390fd5b600080805490505050600554600360003373ffffffffffffffffffffffffffffffffffffffff1673ffffffffffffffffffffffffffffffffffffffff168152602001908152602001600020505060003390506000600360003373ffffffffffffffffffffffffffffffffffffffff1673ffffffffffffffffffffffffffffffffffffffff1681526020019081526020016000205490508173ffffffffffffffffffffffffffffffffffffffff166108fc829081150290604051600060405180830381858888f19350505050158015610f14573d6000803e3d6000fd5b505050565b60065481565b60046020528060005260406000206000915090505481565b6000600260008373ffffffffffffffffffffffffffffffffffffffff1673ffffffffffffffffffffffffffffffffffffffff16815260200190815260200160002060009054906101000a900460ff169050919050565b6000819050919050565b610fa081610f8d565b82525050565b6000602082019050610fbb6000830184610f97565b92915050565b600080fd5b600073ffffffffffffffffffffffffffffffffffffffff82169050919050565b6000610ff182610fc6565b9050919050565b61100181610fe6565b811461100c57600080fd5b50565b60008135905061101e81610ff8565b92915050565b60006020828403121561103a57611039610fc1565b5b60006110488482850161100f565b91505092915050565b60008115159050919050565b61106681611051565b82525050565b6000602082019050611081600083018461105d565b92915050565b61109081610fe6565b82525050565b60006020820190506110ab6000830184611087565b92915050565b7f4e487b7100000000000000000000000000000000000000000000000000000000600052602160045260246000fd5b600481106110f1576110f06110b1565b5b50565b6000819050611102826110e0565b919050565b6000611112826110f4565b9050919050565b61112281611107565b82525050565b600060208201905061113d6000830184611119565b92915050565b61114c81610f8d565b811461115757600080fd5b50565b60008135905061116981611143565b92915050565b60006020828403121561118557611184610fc1565b5b60006111938482850161115a565b91505092915050565b600081519050919050565b600082825260208201905092915050565b6000819050602082019050919050565b60006111d382610fc6565b9050919050565b6111e3816111c8565b82525050565b60006111f583836111da565b60208301905092915050565b6000602082019050919050565b60006112198261119c565b61122381856111a7565b935061122e836111b8565b8060005b8381101561125f57815161124688826111e9565b975061125183611201565b925050600181019050611232565b5085935050505092915050565b60006020820190508181036000830152611286818461120e565b905092915050565b600082825260208201905092915050565b7f4f6e6c792061207374616b65686f6c6465722063616e2063616c6c207468697360008201527f2066756e6374696f6e0000000000000000000000000000000000000000000000602082015250565b60006112fb60298361128e565b91506113068261129f565b604082019050919050565b6000602082019050818103600083015261132a816112ee565b9050919050565b7f5374616b696e6720706572696f642068617320656e6465640000000000000000600082015250565b600061136760188361128e565b915061137282611331565b602082019050919050565b600060208201905081810360008301526113968161135a565b9050919050565b7f5374616b696e6720706572696f6420686173206e6f7420656c61707365640000600082015250565b60006113d3601e8361128e565b91506113de8261139d565b602082019050919050565b60006020820190508181036000830152611402816113c6565b9050919050565b7f4e6f20207374616b657320617661696c61626c65000000000000000000000000600082015250565b600061143f60148361128e565b915061144a82611409565b602082019050919050565b6000602082019050818103600083015261146e81611432565b9050919050565b7f416c726561647920756e7374616b656400000000000000000000000000000000600082015250565b60006114ab60108361128e565b91506114b682611475565b602082019050919050565b600060208201905081810360008301526114da8161149e565b9050919050565b7f43616e6e6f74207465726d696e617465206166746572207374616b6500000000600082015250565b6000611517601c8361128e565b9150611522826114e1565b602082019050919050565b600060208201905081810360008301526115468161150a565b9050919050565b7f4d696e696d756d207374616b6520697320302e30312065746865720000000000600082015250565b6000611583601b8361128e565b915061158e8261154d565b602082019050919050565b600060208201905081810360008301526115b281611576565b9050919050565b7f4e487b7100000000000000000000000000000000000000000000000000000000600052601160045260246000fd5b60006115f382610f8d565b91507fffffffffffffffffffffffffffffffffffffffffffffffffffffffffffffffff821415611626576116256115b9565b5b600182019050919050565b600061163c82610f8d565b915061164783610f8d565b9250827fffffffffffffffffffffffffffffffffffffffffffffffffffffffffffffffff0382111561167c5761167b6115b9565b5b828201905092915050565b7f4e487b7100000000000000000000000000000000000000000000000000000000600052603260045260246000fd5b7f5374616b696e6720706572696f6420686173206e6f74206e6f7420656c61707360008201527f6564000000000000000000000000000000000000000000000000000000000000602082015250565b600061171260228361128e565b915061171d826116b6565b604082019050919050565b6000602082019050818103600083015261174181611705565b9050919050565b7f4e6f742061207374616b65686f6c646572000000000000000000000000000000600082015250565b600061177e60118361128e565b915061178982611748565b602082019050919050565b600060208201905081810360008301526117ad81611771565b905091905056fea26469706673582212202f3e0b50abaa2d4439d8e71eb81060c1db047a5d0553328067fe457ff1e33e5e64736f6c63430008080033",
  "linkReferences": {},
  "deployedLinkReferences": {}
}