{
  "_format": "hh-sol-artifact-1",
  "contractName": "Staking",
  "sourceName": "contracts/Staking.sol",
  "abi": [
    {
      "inputs": [],
      "stateMutability": "nonpayable",
      "type": "constructor"
    },
    {
      "anonymous": false,
      "inputs": [
        {
          "indexed": true,
          "internalType": "uint256",
          "name": "rewards",
          "type": "uint256"
        }
      ],
      "name": "RewardClaim",
      "type": "event"
    },
    {
      "anonymous": false,
      "inputs": [
        {
          "indexed": true,
          "internalType": "address",
          "name": "stakeholder",
          "type": "address"
        },
        {
          "indexed": false,
          "internalType": "uint256",
          "name": "stake",
          "type": "uint256"
        }
      ],
      "name": "Staked",
      "type": "event"
    },
    {
      "anonymous": false,
      "inputs": [
        {
          "indexed": true,
          "internalType": "address",
          "name": "stakeholder",
          "type": "address"
        }
      ],
      "name": "Stakers",
      "type": "event"
    },
    {
      "anonymous": false,
      "inputs": [
        {
          "indexed": true,
          "internalType": "address",
          "name": "stakeholder",
          "type": "address"
        },
        {
          "indexed": false,
          "internalType": "uint256",
          "name": "stakedAmount",
          "type": "uint256"
        }
      ],
      "name": "Unstaked",
      "type": "event"
    },
    {
      "anonymous": false,
      "inputs": [
        {
          "indexed": true,
          "internalType": "address",
          "name": "stakeholder",
          "type": "address"
        },
        {
          "indexed": true,
          "internalType": "uint256",
          "name": "rewards",
          "type": "uint256"
        },
        {
          "indexed": true,
          "internalType": "uint256",
          "name": "stakedAmount",
          "type": "uint256"
        }
      ],
      "name": "Withdrawal",
      "type": "event"
    },
    {
      "inputs": [],
      "name": "STAKETIME",
      "outputs": [
        {
          "internalType": "uint256",
          "name": "",
          "type": "uint256"
        }
      ],
      "stateMutability": "view",
      "type": "function"
    },
    {
      "inputs": [],
      "name": "THRESHOLD",
      "outputs": [
        {
          "internalType": "uint256",
          "name": "",
          "type": "uint256"
        }
      ],
      "stateMutability": "view",
      "type": "function"
    },
    {
      "inputs": [
        {
          "internalType": "address",
          "name": "",
          "type": "address"
        }
      ],
      "name": "balances",
      "outputs": [
        {
          "internalType": "uint256",
          "name": "",
          "type": "uint256"
        }
      ],
      "stateMutability": "view",
      "type": "function"
    },
    {
      "inputs": [],
      "name": "getBalance",
      "outputs": [
        {
          "internalType": "uint256",
          "name": "",
          "type": "uint256"
        }
      ],
      "stateMutability": "view",
      "type": "function"
    },
    {
      "inputs": [
        {
          "internalType": "address",
          "name": "stakeholdersAddress",
          "type": "address"
        },
        {
          "internalType": "uint256",
          "name": "_stake",
          "type": "uint256"
        }
      ],
      "name": "getReward",
      "outputs": [
        {
          "internalType": "uint256",
          "name": "rewards",
          "type": "uint256"
        }
      ],
      "stateMutability": "view",
      "type": "function"
    },
    {
      "inputs": [],
      "name": "getStakeholder",
      "outputs": [
        {
          "internalType": "address payable[]",
          "name": "",
          "type": "address[]"
        }
      ],
      "stateMutability": "view",
      "type": "function"
    },
    {
      "inputs": [
        {
          "internalType": "uint256",
          "name": "index",
          "type": "uint256"
        }
      ],
      "name": "getStakeholders",
      "outputs": [
        {
          "internalType": "address",
          "name": "",
          "type": "address"
        }
      ],
      "stateMutability": "view",
      "type": "function"
    },
    {
      "inputs": [
        {
          "internalType": "address",
          "name": "stakeholdersAddress",
          "type": "address"
        }
      ],
      "name": "getstakeholdersIndex",
      "outputs": [
        {
          "internalType": "uint256",
          "name": "",
          "type": "uint256"
        }
      ],
      "stateMutability": "view",
      "type": "function"
    },
    {
      "inputs": [
        {
          "internalType": "address",
          "name": "stakeholdersAddress",
          "type": "address"
        }
      ],
      "name": "isStakeholder",
      "outputs": [
        {
          "internalType": "bool",
          "name": "",
          "type": "bool"
        }
      ],
      "stateMutability": "view",
      "type": "function"
    },
    {
      "inputs": [],
      "name": "manager",
      "outputs": [
        {
          "internalType": "address",
          "name": "",
          "type": "address"
        }
      ],
      "stateMutability": "view",
      "type": "function"
    },
    {
      "inputs": [
        {
          "internalType": "uint256",
          "name": "_reward",
          "type": "uint256"
        }
      ],
      "name": "reward",
      "outputs": [],
      "stateMutability": "payable",
      "type": "function"
    },
    {
      "inputs": [
        {
          "internalType": "uint256",
          "name": "_stake",
          "type": "uint256"
        }
      ],
      "name": "stake",
      "outputs": [],
      "stateMutability": "payable",
      "type": "function"
    },
    {
      "inputs": [],
      "name": "stakedAmount",
      "outputs": [
        {
          "internalType": "uint256",
          "name": "",
          "type": "uint256"
        }
      ],
      "stateMutability": "view",
      "type": "function"
    },
    {
      "inputs": [
        {
          "internalType": "address",
          "name": "",
          "type": "address"
        }
      ],
      "name": "stakeholder",
      "outputs": [
        {
          "internalType": "bool",
          "name": "",
          "type": "bool"
        }
      ],
      "stateMutability": "view",
      "type": "function"
    },
    {
      "inputs": [
        {
          "internalType": "address",
          "name": "",
          "type": "address"
        }
      ],
      "name": "stakeholdersIndex",
      "outputs": [
        {
          "internalType": "uint256",
          "name": "",
          "type": "uint256"
        }
      ],
      "stateMutability": "view",
      "type": "function"
    },
    {
      "inputs": [],
      "name": "stakerCount",
      "outputs": [
        {
          "internalType": "uint256",
          "name": "",
          "type": "uint256"
        }
      ],
      "stateMutability": "view",
      "type": "function"
    },
    {
      "inputs": [],
      "name": "staking",
      "outputs": [
        {
          "internalType": "enum Staking.State",
          "name": "",
          "type": "uint8"
        }
      ],
      "stateMutability": "view",
      "type": "function"
    },
    {
      "inputs": [],
      "name": "totalRewards",
      "outputs": [
        {
          "internalType": "uint256",
          "name": "",
          "type": "uint256"
        }
      ],
      "stateMutability": "view",
      "type": "function"
    },
    {
      "inputs": [
        {
          "internalType": "address",
          "name": "stakeholdersAddress",
          "type": "address"
        },
        {
          "internalType": "uint256",
          "name": "_stake",
          "type": "uint256"
        }
      ],
      "name": "transfer",
      "outputs": [
        {
          "internalType": "bool",
          "name": "success",
          "type": "bool"
        }
      ],
      "stateMutability": "nonpayable",
      "type": "function"
    },
    {
      "inputs": [],
      "name": "unstake",
      "outputs": [],
      "stateMutability": "payable",
      "type": "function"
    },
    {
      "inputs": [
        {
          "internalType": "uint256",
          "name": "_stake",
          "type": "uint256"
        }
      ],
      "name": "withdrawStake",
      "outputs": [],
      "stateMutability": "payable",
      "type": "function"
    }
  ],
  "bytecode": "0x608060405234801561001057600080fd5b5033600160006101000a81548173ffffffffffffffffffffffffffffffffffffffff021916908373ffffffffffffffffffffffffffffffffffffffff1602179055506001600860006101000a81548160ff0219169083600381111561007857610077610082565b5b02179055506100b1565b7f4e487b7100000000000000000000000000000000000000000000000000000000600052602160045260246000fd5b61200d806100c06000396000f3fe60806040526004361061012a5760003560e01c80634cf088d9116100ab578063a9059cbb1161006f578063a9059cbb146103cf578063a9fb763c1461040c578063b703367414610428578063dff6978714610453578063ef037b901461047e578063f474c8ce146104bb5761012a565b80634cf088d9146102f55780636b5d1bcd1461032057806371cc9d331461035d578063785ffb3714610388578063a694fc3a146103b35761012a565b806325d5971f116100f257806325d5971f1461023c57806327e235e3146102585780632def662014610295578063373d61321461029f578063481c6a75146102ca5761012a565b80630b83d9c21461012f5780630e15561a1461016c57806312065fe01461019757806320e8ed80146101c2578063225e69d5146101ff575b600080fd5b34801561013b57600080fd5b506101566004803603810190610151919061157b565b6104f8565b60405161016391906115c1565b60405180910390f35b34801561017857600080fd5b50610181610541565b60405161018e91906115c1565b60405180910390f35b3480156101a357600080fd5b506101ac610547565b6040516101b991906115c1565b60405180910390f35b3480156101ce57600080fd5b506101e960048036038101906101e4919061157b565b61054f565b6040516101f691906115c1565b60405180910390f35b34801561020b57600080fd5b506102266004803603810190610221919061157b565b610567565b60405161023391906115f7565b60405180910390f35b6102566004803603810190610251919061163e565b610587565b005b34801561026457600080fd5b5061027f600480360381019061027a919061157b565b610a4c565b60405161028c91906115c1565b60405180910390f35b61029d610a64565b005b3480156102ab57600080fd5b506102b4610caf565b6040516102c191906115c1565b60405180910390f35b3480156102d657600080fd5b506102df610cb5565b6040516102ec919061167a565b60405180910390f35b34801561030157600080fd5b5061030a610cdb565b604051610317919061170c565b60405180910390f35b34801561032c57600080fd5b506103476004803603810190610342919061163e565b610cee565b604051610354919061167a565b60405180910390f35b34801561036957600080fd5b50610372610d35565b60405161037f91906115c1565b60405180910390f35b34801561039457600080fd5b5061039d610d3a565b6040516103aa91906115c1565b60405180910390f35b6103cd60048036038101906103c8919061163e565b610d46565b005b3480156103db57600080fd5b506103f660048036038101906103f19190611727565b610ffb565b60405161040391906115f7565b60405180910390f35b6104266004803603810190610421919061163e565b6110fb565b005b34801561043457600080fd5b5061043d611321565b60405161044a9190611837565b60405180910390f35b34801561045f57600080fd5b506104686113af565b60405161047591906115c1565b60405180910390f35b34801561048a57600080fd5b506104a560048036038101906104a0919061157b565b6113b5565b6040516104b291906115f7565b60405180910390f35b3480156104c757600080fd5b506104e260048036038101906104dd9190611727565b61140b565b6040516104ef91906115c1565b60405180910390f35b6000600360008373ffffffffffffffffffffffffffffffffffffffff1673ffffffffffffffffffffffffffffffffffffffff168152602001908152602001600020549050919050565b60075481565b600047905090565b60036020528060005260406000206000915090505481565b60026020528060005260406000206000915054906101000a900460ff1681565b6000600360003373ffffffffffffffffffffffffffffffffffffffff1673ffffffffffffffffffffffffffffffffffffffff1681526020019081526020016000205411610609576040517f08c379a0000000000000000000000000000000000000000000000000000000008152600401610600906118dc565b60405180910390fd5b603c42101561064d576040517f08c379a000000000000000000000000000000000000000000000000000000000815260040161064490611948565b60405180910390fd5b603c421180156106665750670de0b6b3a7640000600554115b6106a5576040517f08c379a000000000000000000000000000000000000000000000000000000000815260040161069c906119da565b60405180910390fd5b6000600360003373ffffffffffffffffffffffffffffffffffffffff1673ffffffffffffffffffffffffffffffffffffffff1681526020019081526020016000205411610727576040517f08c379a000000000000000000000000000000000000000000000000000000000815260040161071e90611a46565b60405180910390fd5b600080805490505050600554600360003373ffffffffffffffffffffffffffffffffffffffff1673ffffffffffffffffffffffffffffffffffffffff16815260200190815260200160002050506000600360003373ffffffffffffffffffffffffffffffffffffffff1673ffffffffffffffffffffffffffffffffffffffff1681526020019081526020016000205490506000339050603c4210610a0c5761081783600360003373ffffffffffffffffffffffffffffffffffffffff1673ffffffffffffffffffffffffffffffffffffffff1681526020019081526020016000205461146790919063ffffffff16565b600360003373ffffffffffffffffffffffffffffffffffffffff1673ffffffffffffffffffffffffffffffffffffffff168152602001908152602001600020819055506108ac83600460003373ffffffffffffffffffffffffffffffffffffffff1673ffffffffffffffffffffffffffffffffffffffff1681526020019081526020016000205461147d90919063ffffffff16565b600460003373ffffffffffffffffffffffffffffffffffffffff1673ffffffffffffffffffffffffffffffffffffffff1681526020019081526020016000208190555060006108fb3385611493565b905083836109099190611a95565b600360003373ffffffffffffffffffffffffffffffffffffffff1673ffffffffffffffffffffffffffffffffffffffff168152602001908152602001600020819055508360055461095a9190611a95565b6005819055506000818561096e9190611ac9565b905061097a3382610ffb565b5080823373ffffffffffffffffffffffffffffffffffffffff167fdf273cb619d95419a9cd0ec88123a0538c85064229baa6363788f743fff90deb60405160405180910390a46000600360008573ffffffffffffffffffffffffffffffffffffffff1673ffffffffffffffffffffffffffffffffffffffff168152602001908152602001600020819055505050610a47565b6040517f08c379a0000000000000000000000000000000000000000000000000000000008152600401610a3e90611b91565b60405180910390fd5b505050565b60046020528060005260406000206000915090505481565b6000600360003373ffffffffffffffffffffffffffffffffffffffff1673ffffffffffffffffffffffffffffffffffffffff1681526020019081526020016000205411610ae6576040517f08c379a0000000000000000000000000000000000000000000000000000000008152600401610add906118dc565b60405180910390fd5b603c421015610b2a576040517f08c379a0000000000000000000000000000000000000000000000000000000008152600401610b2190611948565b60405180910390fd5b6000600360003373ffffffffffffffffffffffffffffffffffffffff1673ffffffffffffffffffffffffffffffffffffffff1681526020019081526020016000205411610bac576040517f08c379a0000000000000000000000000000000000000000000000000000000008152600401610ba390611bfd565b60405180910390fd5b600060055414610bf1576040517f08c379a0000000000000000000000000000000000000000000000000000000008152600401610be890611c69565b60405180910390fd5b603c4210610c34576040517f08c379a0000000000000000000000000000000000000000000000000000000008152600401610c2b90611cd5565b60405180910390fd5b6003600860006101000a81548160ff02191690836003811115610c5a57610c59611695565b5b02179055503373ffffffffffffffffffffffffffffffffffffffff167f0f5bb82176feb1b5e747e28471aa92156a04d9f3ab9f45f28e2d704232b93f7534604051610ca591906115c1565b60405180910390a2565b60055481565b600160009054906101000a900473ffffffffffffffffffffffffffffffffffffffff1681565b600860009054906101000a900460ff1681565b6000808281548110610d0357610d02611cf5565b5b9060005260206000200160009054906101000a900473ffffffffffffffffffffffffffffffffffffffff169050919050565b603c81565b670de0b6b3a764000081565b603c421015610d8a576040517f08c379a0000000000000000000000000000000000000000000000000000000008152600401610d8190611948565b60405180910390fd5b60016003811115610d9e57610d9d611695565b5b600860009054906101000a900460ff166003811115610dc057610dbf611695565b5b14610dca57600080fd5b670de0b6b3a7640000341015610e15576040517f08c379a0000000000000000000000000000000000000000000000000000000008152600401610e0c90611d70565b60405180910390fd5b670de0b6b3a76400003410610f04576001600260003373ffffffffffffffffffffffffffffffffffffffff1673ffffffffffffffffffffffffffffffffffffffff16815260200190815260200160002060006101000a81548160ff02191690831515021790555060066000815480929190610e8f90611d90565b919050555034600360003373ffffffffffffffffffffffffffffffffffffffff1673ffffffffffffffffffffffffffffffffffffffff1681526020019081526020016000206000828254610ee39190611ac9565b925050819055503460056000828254610efc9190611ac9565b925050819055505b6000339080600181540180825580915050600190039060005260206000200160009091909190916101000a81548173ffffffffffffffffffffffffffffffffffffffff021916908373ffffffffffffffffffffffffffffffffffffffff1602179055503373ffffffffffffffffffffffffffffffffffffffff167fede85eb76151c24748171578445a1938dc8075454a715eaa8b9c8acbbe24588160405160405180910390a23373ffffffffffffffffffffffffffffffffffffffff167f9e71bc8eea02a63969f509818f2dafb9254532904319f9dbda79b67bd34a5f3d34604051610ff091906115c1565b60405180910390a250565b600081600460003373ffffffffffffffffffffffffffffffffffffffff1673ffffffffffffffffffffffffffffffffffffffff16815260200190815260200160002054101561104957600080fd5b81600460008573ffffffffffffffffffffffffffffffffffffffff1673ffffffffffffffffffffffffffffffffffffffff16815260200190815260200160002060008282546110989190611ac9565b9250508190555081600460003373ffffffffffffffffffffffffffffffffffffffff1673ffffffffffffffffffffffffffffffffffffffff16815260200190815260200160002060008282546110ee9190611a95565b9250508190555092915050565b6000600360003373ffffffffffffffffffffffffffffffffffffffff1673ffffffffffffffffffffffffffffffffffffffff168152602001908152602001600020541161117d576040517f08c379a0000000000000000000000000000000000000000000000000000000008152600401611174906118dc565b60405180910390fd5b603c4210156111c1576040517f08c379a00000000000000000000000000000000000000000000000000000000081526004016111b890611948565b60405180910390fd5b603c42101580156111db5750670de0b6b3a7640000600554115b61121a576040517f08c379a000000000000000000000000000000000000000000000000000000000815260040161121190611e25565b60405180910390fd5b6000600360003373ffffffffffffffffffffffffffffffffffffffff1673ffffffffffffffffffffffffffffffffffffffff168152602001908152602001600020541161129c576040517f08c379a000000000000000000000000000000000000000000000000000000000815260040161129390611e91565b60405180910390fd5b6000600554146112e3576112b1333083611508565b807f5bbb69a4f697e9fee4d549ff1419b410cda86001c79df67fbe788d9c6261dd7360405160405180910390a261131e565b6040517f08c379a000000000000000000000000000000000000000000000000000000000815260040161131590611efd565b60405180910390fd5b50565b606060008054806020026020016040519081016040528092919081815260200182805480156113a557602002820191906000526020600020905b8160009054906101000a900473ffffffffffffffffffffffffffffffffffffffff1673ffffffffffffffffffffffffffffffffffffffff168152602001906001019080831161135b575b5050505050905090565b60065481565b6000600260008373ffffffffffffffffffffffffffffffffffffffff1673ffffffffffffffffffffffffffffffffffffffff16815260200190815260200160002060009054906101000a900460ff169050919050565b600080600360008573ffffffffffffffffffffffffffffffffffffffff1673ffffffffffffffffffffffffffffffffffffffff1681526020019081526020016000205411156114615761145e8383611493565b90505b92915050565b600081836114759190611ac9565b905092915050565b6000818361148b9190611a95565b905092915050565b6000670de0b6b3a7640000600360008573ffffffffffffffffffffffffffffffffffffffff1673ffffffffffffffffffffffffffffffffffffffff168152602001908152602001600020546007546114eb9190611a95565b836114f69190611f1d565b6115009190611fa6565b905092915050565b611513838383611508565b505050565b600080fd5b600073ffffffffffffffffffffffffffffffffffffffff82169050919050565b60006115488261151d565b9050919050565b6115588161153d565b811461156357600080fd5b50565b6000813590506115758161154f565b92915050565b60006020828403121561159157611590611518565b5b600061159f84828501611566565b91505092915050565b6000819050919050565b6115bb816115a8565b82525050565b60006020820190506115d660008301846115b2565b92915050565b60008115159050919050565b6115f1816115dc565b82525050565b600060208201905061160c60008301846115e8565b92915050565b61161b816115a8565b811461162657600080fd5b50565b60008135905061163881611612565b92915050565b60006020828403121561165457611653611518565b5b600061166284828501611629565b91505092915050565b6116748161153d565b82525050565b600060208201905061168f600083018461166b565b92915050565b7f4e487b7100000000000000000000000000000000000000000000000000000000600052602160045260246000fd5b600481106116d5576116d4611695565b5b50565b60008190506116e6826116c4565b919050565b60006116f6826116d8565b9050919050565b611706816116eb565b82525050565b600060208201905061172160008301846116fd565b92915050565b6000806040838503121561173e5761173d611518565b5b600061174c85828601611566565b925050602061175d85828601611629565b9150509250929050565b600081519050919050565b600082825260208201905092915050565b6000819050602082019050919050565b600061179e8261151d565b9050919050565b6117ae81611793565b82525050565b60006117c083836117a5565b60208301905092915050565b6000602082019050919050565b60006117e482611767565b6117ee8185611772565b93506117f983611783565b8060005b8381101561182a57815161181188826117b4565b975061181c836117cc565b9250506001810190506117fd565b5085935050505092915050565b6000602082019050818103600083015261185181846117d9565b905092915050565b600082825260208201905092915050565b7f4f6e6c792061207374616b65686f6c6465722063616e2063616c6c207468697360008201527f2066756e6374696f6e0000000000000000000000000000000000000000000000602082015250565b60006118c6602983611859565b91506118d18261186a565b604082019050919050565b600060208201905081810360008301526118f5816118b9565b9050919050565b7f5374616b696e6720706572696f642068617320656e6465640000000000000000600082015250565b6000611932601883611859565b915061193d826118fc565b602082019050919050565b6000602082019050818103600083015261196181611925565b9050919050565b7f5374616b696e6720706572696f6420686173206e6f74206e6f7420656c61707360008201527f6564000000000000000000000000000000000000000000000000000000000000602082015250565b60006119c4602283611859565b91506119cf82611968565b604082019050919050565b600060208201905081810360008301526119f3816119b7565b9050919050565b7f4e6f742061207374616b65686f6c646572000000000000000000000000000000600082015250565b6000611a30601183611859565b9150611a3b826119fa565b602082019050919050565b60006020820190508181036000830152611a5f81611a23565b9050919050565b7f4e487b7100000000000000000000000000000000000000000000000000000000600052601160045260246000fd5b6000611aa0826115a8565b9150611aab836115a8565b925082821015611abe57611abd611a66565b5b828203905092915050565b6000611ad4826115a8565b9150611adf836115a8565b9250827fffffffffffffffffffffffffffffffffffffffffffffffffffffffffffffffff03821115611b1457611b13611a66565b5b828201905092915050565b7f546f6b656e7320617265206f6e6c7920617661696c61626c652061667465722060008201527f636f72726563742074696d6520706572696f642068617320656c617073656400602082015250565b6000611b7b603f83611859565b9150611b8682611b1f565b604082019050919050565b60006020820190508181036000830152611baa81611b6e565b9050919050565b7f4e6f20207374616b657320617661696c61626c65000000000000000000000000600082015250565b6000611be7601483611859565b9150611bf282611bb1565b602082019050919050565b60006020820190508181036000830152611c1681611bda565b9050919050565b7f416c726561647920756e7374616b656400000000000000000000000000000000600082015250565b6000611c53601083611859565b9150611c5e82611c1d565b602082019050919050565b60006020820190508181036000830152611c8281611c46565b9050919050565b7f43616e6e6f74207465726d696e617465206166746572207374616b6500000000600082015250565b6000611cbf601c83611859565b9150611cca82611c89565b602082019050919050565b60006020820190508181036000830152611cee81611cb2565b9050919050565b7f4e487b7100000000000000000000000000000000000000000000000000000000600052603260045260246000fd5b7f4d696e696d756d207374616b6520697320312065746865720000000000000000600082015250565b6000611d5a601883611859565b9150611d6582611d24565b602082019050919050565b60006020820190508181036000830152611d8981611d4d565b9050919050565b6000611d9b826115a8565b91507fffffffffffffffffffffffffffffffffffffffffffffffffffffffffffffffff821415611dce57611dcd611a66565b5b600182019050919050565b7f5374616b696e6720706572696f6420686173206e6f7420656c61707365640000600082015250565b6000611e0f601e83611859565b9150611e1a82611dd9565b602082019050919050565b60006020820190508181036000830152611e3e81611e02565b9050919050565b7f556e617574686f72697a65640000000000000000000000000000000000000000600082015250565b6000611e7b600c83611859565b9150611e8682611e45565b602082019050919050565b60006020820190508181036000830152611eaa81611e6e565b9050919050565b7f4e6f207374616b65000000000000000000000000000000000000000000000000600082015250565b6000611ee7600883611859565b9150611ef282611eb1565b602082019050919050565b60006020820190508181036000830152611f1681611eda565b9050919050565b6000611f28826115a8565b9150611f33836115a8565b9250817fffffffffffffffffffffffffffffffffffffffffffffffffffffffffffffffff0483118215151615611f6c57611f6b611a66565b5b828202905092915050565b7f4e487b7100000000000000000000000000000000000000000000000000000000600052601260045260246000fd5b6000611fb1826115a8565b9150611fbc836115a8565b925082611fcc57611fcb611f77565b5b82820490509291505056fea26469706673582212203dbbaeb4566e145c955c6195720d588e68381b6586e590243b9dad46ee7aa81b64736f6c63430008080033",
  "linkReferences": {},
  "deployedLinkReferences": {}
}